{
  "_format": "hh-sol-artifact-1",
  "contractName": "SimpleCalculator",
  "sourceName": "contracts/Assessment.sol",
  "abi": [
    {
      "anonymous": false,
      "inputs": [
        {
          "indexed": true,
          "internalType": "uint256",
          "name": "value",
          "type": "uint256"
        }
      ],
      "name": "ValueUpdated",
      "type": "event"
    },
    {
      "inputs": [],
      "name": "Addition",
      "outputs": [],
      "stateMutability": "nonpayable",
      "type": "function"
    },
    {
      "inputs": [],
      "name": "Division",
      "outputs": [],
      "stateMutability": "nonpayable",
      "type": "function"
    },
    {
      "inputs": [],
      "name": "Muliplication",
      "outputs": [],
      "stateMutability": "nonpayable",
      "type": "function"
    },
    {
      "inputs": [],
      "name": "Subtraction",
      "outputs": [],
      "stateMutability": "nonpayable",
      "type": "function"
    },
    {
      "inputs": [],
      "name": "getValue1",
      "outputs": [
        {
          "internalType": "uint256",
          "name": "",
          "type": "uint256"
        }
      ],
      "stateMutability": "view",
      "type": "function"
    },
    {
      "inputs": [],
      "name": "getValue2",
      "outputs": [
        {
          "internalType": "uint256",
          "name": "",
          "type": "uint256"
        }
      ],
      "stateMutability": "view",
      "type": "function"
    },
    {
      "inputs": [
        {
          "internalType": "uint256",
          "name": "_newValue",
          "type": "uint256"
        }
      ],
      "name": "setValue1",
      "outputs": [],
      "stateMutability": "nonpayable",
      "type": "function"
    },
    {
      "inputs": [
        {
          "internalType": "uint256",
          "name": "_newValue",
          "type": "uint256"
        }
      ],
      "name": "setValue2",
      "outputs": [],
      "stateMutability": "nonpayable",
      "type": "function"
    },
    {
      "inputs": [],
      "name": "total",
      "outputs": [
        {
          "internalType": "uint256",
          "name": "",
          "type": "uint256"
        }
      ],
      "stateMutability": "view",
      "type": "function"
    },
    {
      "inputs": [],
      "name": "value1",
      "outputs": [
        {
          "internalType": "uint256",
          "name": "",
          "type": "uint256"
        }
      ],
      "stateMutability": "view",
      "type": "function"
    },
    {
      "inputs": [],
      "name": "value2",
      "outputs": [
        {
          "internalType": "uint256",
          "name": "",
          "type": "uint256"
        }
      ],
      "stateMutability": "view",
      "type": "function"
    }
  ],
  "bytecode": "0x608060405234801561001057600080fd5b50610498806100206000396000f3fe608060405234801561001057600080fd5b50600436106100a95760003560e01c806360d586f81161007157806360d586f81461011c5780636ca0f3211461013a5780636f6cca251461015657806374d393f014610160578063c515205d1461017c578063e7fa24c21461019a576100a9565b8063235364aa146100ae57806327e61563146100b85780632ddbd13a146100c25780633033413b146100e05780635d33a27f146100fe575b600080fd5b6100b66101a4565b005b6100c06101bc565b005b6100ca6101d4565b6040516100d791906102b0565b60405180910390f35b6100e86101da565b6040516100f591906102b0565b60405180910390f35b6101066101e0565b60405161011391906102b0565b60405180910390f35b6101246101e6565b60405161013191906102b0565b60405180910390f35b610154600480360381019061014f91906102fc565b6101ef565b005b61015e610226565b005b61017a600480360381019061017591906102fc565b61023e565b005b610184610275565b60405161019191906102b0565b60405180910390f35b6101a261027f565b005b6001546000546101b49190610358565b600281905550565b6001546000546101cc919061038c565b600281905550565b60025481565b60005481565b60015481565b60008054905090565b80600081905550807f4273d0736f60e0dedfe745e86718093d8ec8646ebd2a60cd60643eeced56581160405160405180910390a250565b60015460005461023691906103c0565b600281905550565b80600181905550807f4273d0736f60e0dedfe745e86718093d8ec8646ebd2a60cd60643eeced56581160405160405180910390a250565b6000600154905090565b60015460005461028f9190610431565b600281905550565b6000819050919050565b6102aa81610297565b82525050565b60006020820190506102c560008301846102a1565b92915050565b600080fd5b6102d981610297565b81146102e457600080fd5b50565b6000813590506102f6816102d0565b92915050565b600060208284031215610312576103116102cb565b5b6000610320848285016102e7565b91505092915050565b7f4e487b7100000000000000000000000000000000000000000000000000000000600052601160045260246000fd5b600061036382610297565b915061036e83610297565b925082820390508181111561038657610385610329565b5b92915050565b600061039782610297565b91506103a283610297565b92508282019050808211156103ba576103b9610329565b5b92915050565b60006103cb82610297565b91506103d683610297565b92508282026103e481610297565b915082820484148315176103fb576103fa610329565b5b5092915050565b7f4e487b7100000000000000000000000000000000000000000000000000000000600052601260045260246000fd5b600061043c82610297565b915061044783610297565b92508261045757610456610402565b5b82820490509291505056fea26469706673582212205d2b402694bdc1b6e6d704210069ce017a05d2d81c04e8701fb536c14d9a95a664736f6c63430008110033",
  "linkReferences": {},
  "deployedLinkReferences": {}
}