{"contracts/Assessment.sol":{"SimpleCalculator":{"abi":[{"anonymous":false,"inputs":[{"indexed":true,"internalType":"uint256","name":"value","type":"uint256"}],"name":"ValueUpdated","type":"event"},{"inputs":[],"name":"Addition","outputs":[],"stateMutability":"nonpayable","type":"function"},{"inputs":[],"name":"Division","outputs":[],"stateMutability":"nonpayable","type":"function"},{"inputs":[],"name":"Muliplication","outputs":[],"stateMutability":"nonpayable","type":"function"},{"inputs":[],"name":"Subtraction","outputs":[],"stateMutability":"nonpayable","type":"function"},{"inputs":[],"name":"getValue1","outputs":[{"internalType":"uint256","name":"","type":"uint256"}],"stateMutability":"view","type":"function"},{"inputs":[],"name":"getValue2","outputs":[{"internalType":"uint256","name":"","type":"uint256"}],"stateMutability":"view","type":"function"},{"inputs":[{"internalType":"uint256","name":"_newValue","type":"uint256"}],"name":"setValue1","outputs":[],"stateMutability":"nonpayable","type":"function"},{"inputs":[{"internalType":"uint256","name":"_newValue","type":"uint256"}],"name":"setValue2","outputs":[],"stateMutability":"nonpayable","type":"function"},{"inputs":[],"name":"total","outputs":[{"internalType":"uint256","name":"","type":"uint256"}],"stateMutability":"view","type":"function"},{"inputs":[],"name":"value1","outputs":[{"internalType":"uint256","name":"","type":"uint256"}],"stateMutability":"view","type":"function"},{"inputs":[],"name":"value2","outputs":[{"internalType":"uint256","name":"","type":"uint256"}],"stateMutability":"view","type":"function"}],"evm":{"bytecode":{"linkReferences":{},"object":"608060405234801561001057600080fd5b50610498806100206000396000f3fe608060405234801561001057600080fd5b50600436106100a95760003560e01c806360d586f81161007157806360d586f81461011c5780636ca0f3211461013a5780636f6cca251461015657806374d393f014610160578063c515205d1461017c578063e7fa24c21461019a576100a9565b8063235364aa146100ae57806327e61563146100b85780632ddbd13a146100c25780633033413b146100e05780635d33a27f146100fe575b600080fd5b6100b66101a4565b005b6100c06101bc565b005b6100ca6101d4565b6040516100d791906102b0565b60405180910390f35b6100e86101da565b6040516100f591906102b0565b60405180910390f35b6101066101e0565b60405161011391906102b0565b60405180910390f35b6101246101e6565b60405161013191906102b0565b60405180910390f35b610154600480360381019061014f91906102fc565b6101ef565b005b61015e610226565b005b61017a600480360381019061017591906102fc565b61023e565b005b610184610275565b60405161019191906102b0565b60405180910390f35b6101a261027f565b005b6001546000546101b49190610358565b600281905550565b6001546000546101cc919061038c565b600281905550565b60025481565b60005481565b60015481565b60008054905090565b80600081905550807f4273d0736f60e0dedfe745e86718093d8ec8646ebd2a60cd60643eeced56581160405160405180910390a250565b60015460005461023691906103c0565b600281905550565b80600181905550807f4273d0736f60e0dedfe745e86718093d8ec8646ebd2a60cd60643eeced56581160405160405180910390a250565b6000600154905090565b60015460005461028f9190610431565b600281905550565b6000819050919050565b6102aa81610297565b82525050565b60006020820190506102c560008301846102a1565b92915050565b600080fd5b6102d981610297565b81146102e457600080fd5b50565b6000813590506102f6816102d0565b92915050565b600060208284031215610312576103116102cb565b5b6000610320848285016102e7565b91505092915050565b7f4e487b7100000000000000000000000000000000000000000000000000000000600052601160045260246000fd5b600061036382610297565b915061036e83610297565b925082820390508181111561038657610385610329565b5b92915050565b600061039782610297565b91506103a283610297565b92508282019050808211156103ba576103b9610329565b5b92915050565b60006103cb82610297565b91506103d683610297565b92508282026103e481610297565b915082820484148315176103fb576103fa610329565b5b5092915050565b7f4e487b7100000000000000000000000000000000000000000000000000000000600052601260045260246000fd5b600061043c82610297565b915061044783610297565b92508261045757610456610402565b5b82820490509291505056fea26469706673582212205d2b402694bdc1b6e6d704210069ce017a05d2d81c04e8701fb536c14d9a95a664736f6c63430008110033","opcodes":"PUSH1 0x80 PUSH1 0x40 MSTORE CALLVALUE DUP1 ISZERO PUSH2 0x10 JUMPI PUSH1 0x0 DUP1 REVERT JUMPDEST POP PUSH2 0x498 DUP1 PUSH2 0x20 PUSH1 0x0 CODECOPY PUSH1 0x0 RETURN INVALID PUSH1 0x80 PUSH1 0x40 MSTORE CALLVALUE DUP1 ISZERO PUSH2 0x10 JUMPI PUSH1 0x0 DUP1 REVERT JUMPDEST POP PUSH1 0x4 CALLDATASIZE LT PUSH2 0xA9 JUMPI PUSH1 0x0 CALLDATALOAD PUSH1 0xE0 SHR DUP1 PUSH4 0x60D586F8 GT PUSH2 0x71 JUMPI DUP1 PUSH4 0x60D586F8 EQ PUSH2 0x11C JUMPI DUP1 PUSH4 0x6CA0F321 EQ PUSH2 0x13A JUMPI DUP1 PUSH4 0x6F6CCA25 EQ PUSH2 0x156 JUMPI DUP1 PUSH4 0x74D393F0 EQ PUSH2 0x160 JUMPI DUP1 PUSH4 0xC515205D EQ PUSH2 0x17C JUMPI DUP1 PUSH4 0xE7FA24C2 EQ PUSH2 0x19A JUMPI PUSH2 0xA9 JUMP JUMPDEST DUP1 PUSH4 0x235364AA EQ PUSH2 0xAE JUMPI DUP1 PUSH4 0x27E61563 EQ PUSH2 0xB8 JUMPI DUP1 PUSH4 0x2DDBD13A EQ PUSH2 0xC2 JUMPI DUP1 PUSH4 0x3033413B EQ PUSH2 0xE0 JUMPI DUP1 PUSH4 0x5D33A27F EQ PUSH2 0xFE JUMPI JUMPDEST PUSH1 0x0 DUP1 REVERT JUMPDEST PUSH2 0xB6 PUSH2 0x1A4 JUMP JUMPDEST STOP JUMPDEST PUSH2 0xC0 PUSH2 0x1BC JUMP JUMPDEST STOP JUMPDEST PUSH2 0xCA PUSH2 0x1D4 JUMP JUMPDEST PUSH1 0x40 MLOAD PUSH2 0xD7 SWAP2 SWAP1 PUSH2 0x2B0 JUMP JUMPDEST PUSH1 0x40 MLOAD DUP1 SWAP2 SUB SWAP1 RETURN JUMPDEST PUSH2 0xE8 PUSH2 0x1DA JUMP JUMPDEST PUSH1 0x40 MLOAD PUSH2 0xF5 SWAP2 SWAP1 PUSH2 0x2B0 JUMP JUMPDEST PUSH1 0x40 MLOAD DUP1 SWAP2 SUB SWAP1 RETURN JUMPDEST PUSH2 0x106 PUSH2 0x1E0 JUMP JUMPDEST PUSH1 0x40 MLOAD PUSH2 0x113 SWAP2 SWAP1 PUSH2 0x2B0 JUMP JUMPDEST PUSH1 0x40 MLOAD DUP1 SWAP2 SUB SWAP1 RETURN JUMPDEST PUSH2 0x124 PUSH2 0x1E6 JUMP JUMPDEST PUSH1 0x40 MLOAD PUSH2 0x131 SWAP2 SWAP1 PUSH2 0x2B0 JUMP JUMPDEST PUSH1 0x40 MLOAD DUP1 SWAP2 SUB SWAP1 RETURN JUMPDEST PUSH2 0x154 PUSH1 0x4 DUP1 CALLDATASIZE SUB DUP2 ADD SWAP1 PUSH2 0x14F SWAP2 SWAP1 PUSH2 0x2FC JUMP JUMPDEST PUSH2 0x1EF JUMP JUMPDEST STOP JUMPDEST PUSH2 0x15E PUSH2 0x226 JUMP JUMPDEST STOP JUMPDEST PUSH2 0x17A PUSH1 0x4 DUP1 CALLDATASIZE SUB DUP2 ADD SWAP1 PUSH2 0x175 SWAP2 SWAP1 PUSH2 0x2FC JUMP JUMPDEST PUSH2 0x23E JUMP JUMPDEST STOP JUMPDEST PUSH2 0x184 PUSH2 0x275 JUMP JUMPDEST PUSH1 0x40 MLOAD PUSH2 0x191 SWAP2 SWAP1 PUSH2 0x2B0 JUMP JUMPDEST PUSH1 0x40 MLOAD DUP1 SWAP2 SUB SWAP1 RETURN JUMPDEST PUSH2 0x1A2 PUSH2 0x27F JUMP JUMPDEST STOP JUMPDEST PUSH1 0x1 SLOAD PUSH1 0x0 SLOAD PUSH2 0x1B4 SWAP2 SWAP1 PUSH2 0x358 JUMP JUMPDEST PUSH1 0x2 DUP2 SWAP1 SSTORE POP JUMP JUMPDEST PUSH1 0x1 SLOAD PUSH1 0x0 SLOAD PUSH2 0x1CC SWAP2 SWAP1 PUSH2 0x38C JUMP JUMPDEST PUSH1 0x2 DUP2 SWAP1 SSTORE POP JUMP JUMPDEST PUSH1 0x2 SLOAD DUP2 JUMP JUMPDEST PUSH1 0x0 SLOAD DUP2 JUMP JUMPDEST PUSH1 0x1 SLOAD DUP2 JUMP JUMPDEST PUSH1 0x0 DUP1 SLOAD SWAP1 POP SWAP1 JUMP JUMPDEST DUP1 PUSH1 0x0 DUP2 SWAP1 SSTORE POP DUP1 PUSH32 0x4273D0736F60E0DEDFE745E86718093D8EC8646EBD2A60CD60643EECED565811 PUSH1 0x40 MLOAD PUSH1 0x40 MLOAD DUP1 SWAP2 SUB SWAP1 LOG2 POP JUMP JUMPDEST PUSH1 0x1 SLOAD PUSH1 0x0 SLOAD PUSH2 0x236 SWAP2 SWAP1 PUSH2 0x3C0 JUMP JUMPDEST PUSH1 0x2 DUP2 SWAP1 SSTORE POP JUMP JUMPDEST DUP1 PUSH1 0x1 DUP2 SWAP1 SSTORE POP DUP1 PUSH32 0x4273D0736F60E0DEDFE745E86718093D8EC8646EBD2A60CD60643EECED565811 PUSH1 0x40 MLOAD PUSH1 0x40 MLOAD DUP1 SWAP2 SUB SWAP1 LOG2 POP JUMP JUMPDEST PUSH1 0x0 PUSH1 0x1 SLOAD SWAP1 POP SWAP1 JUMP JUMPDEST PUSH1 0x1 SLOAD PUSH1 0x0 SLOAD PUSH2 0x28F SWAP2 SWAP1 PUSH2 0x431 JUMP JUMPDEST PUSH1 0x2 DUP2 SWAP1 SSTORE POP JUMP JUMPDEST PUSH1 0x0 DUP2 SWAP1 POP SWAP2 SWAP1 POP JUMP JUMPDEST PUSH2 0x2AA DUP2 PUSH2 0x297 JUMP JUMPDEST DUP3 MSTORE POP POP JUMP JUMPDEST PUSH1 0x0 PUSH1 0x20 DUP3 ADD SWAP1 POP PUSH2 0x2C5 PUSH1 0x0 DUP4 ADD DUP5 PUSH2 0x2A1 JUMP JUMPDEST SWAP3 SWAP2 POP POP JUMP JUMPDEST PUSH1 0x0 DUP1 REVERT JUMPDEST PUSH2 0x2D9 DUP2 PUSH2 0x297 JUMP JUMPDEST DUP2 EQ PUSH2 0x2E4 JUMPI PUSH1 0x0 DUP1 REVERT JUMPDEST POP JUMP JUMPDEST PUSH1 0x0 DUP2 CALLDATALOAD SWAP1 POP PUSH2 0x2F6 DUP2 PUSH2 0x2D0 JUMP JUMPDEST SWAP3 SWAP2 POP POP JUMP JUMPDEST PUSH1 0x0 PUSH1 0x20 DUP3 DUP5 SUB SLT ISZERO PUSH2 0x312 JUMPI PUSH2 0x311 PUSH2 0x2CB JUMP JUMPDEST JUMPDEST PUSH1 0x0 PUSH2 0x320 DUP5 DUP3 DUP6 ADD PUSH2 0x2E7 JUMP JUMPDEST SWAP2 POP POP SWAP3 SWAP2 POP POP JUMP JUMPDEST PUSH32 0x4E487B7100000000000000000000000000000000000000000000000000000000 PUSH1 0x0 MSTORE PUSH1 0x11 PUSH1 0x4 MSTORE PUSH1 0x24 PUSH1 0x0 REVERT JUMPDEST PUSH1 0x0 PUSH2 0x363 DUP3 PUSH2 0x297 JUMP JUMPDEST SWAP2 POP PUSH2 0x36E DUP4 PUSH2 0x297 JUMP JUMPDEST SWAP3 POP DUP3 DUP3 SUB SWAP1 POP DUP2 DUP2 GT ISZERO PUSH2 0x386 JUMPI PUSH2 0x385 PUSH2 0x329 JUMP JUMPDEST JUMPDEST SWAP3 SWAP2 POP POP JUMP JUMPDEST PUSH1 0x0 PUSH2 0x397 DUP3 PUSH2 0x297 JUMP JUMPDEST SWAP2 POP PUSH2 0x3A2 DUP4 PUSH2 0x297 JUMP JUMPDEST SWAP3 POP DUP3 DUP3 ADD SWAP1 POP DUP1 DUP3 GT ISZERO PUSH2 0x3BA JUMPI PUSH2 0x3B9 PUSH2 0x329 JUMP JUMPDEST JUMPDEST SWAP3 SWAP2 POP POP JUMP JUMPDEST PUSH1 0x0 PUSH2 0x3CB DUP3 PUSH2 0x297 JUMP JUMPDEST SWAP2 POP PUSH2 0x3D6 DUP4 PUSH2 0x297 JUMP JUMPDEST SWAP3 POP DUP3 DUP3 MUL PUSH2 0x3E4 DUP2 PUSH2 0x297 JUMP JUMPDEST SWAP2 POP DUP3 DUP3 DIV DUP5 EQ DUP4 ISZERO OR PUSH2 0x3FB JUMPI PUSH2 0x3FA PUSH2 0x329 JUMP JUMPDEST JUMPDEST POP SWAP3 SWAP2 POP POP JUMP JUMPDEST PUSH32 0x4E487B7100000000000000000000000000000000000000000000000000000000 PUSH1 0x0 MSTORE PUSH1 0x12 PUSH1 0x4 MSTORE PUSH1 0x24 PUSH1 0x0 REVERT JUMPDEST PUSH1 0x0 PUSH2 0x43C DUP3 PUSH2 0x297 JUMP JUMPDEST SWAP2 POP PUSH2 0x447 DUP4 PUSH2 0x297 JUMP JUMPDEST SWAP3 POP DUP3 PUSH2 0x457 JUMPI PUSH2 0x456 PUSH2 0x402 JUMP JUMPDEST JUMPDEST DUP3 DUP3 DIV SWAP1 POP SWAP3 SWAP2 POP POP JUMP INVALID LOG2 PUSH5 0x6970667358 0x22 SLT KECCAK256 0x5D 0x2B BLOCKHASH 0x26 SWAP5 0xBD 0xC1 0xB6 0xE6 0xD7 DIV 0x21 STOP PUSH10 0xCE017A05D2D81C04E870 0x1F 0xB5 CALLDATASIZE 0xC1 0x4D SWAP11 SWAP6 0xA6 PUSH5 0x736F6C6343 STOP ADDMOD GT STOP CALLER "},"methodIdentifiers":{"Addition()":"27e61563","Division()":"e7fa24c2","Muliplication()":"6f6cca25","Subtraction()":"235364aa","getValue1()":"60d586f8","getValue2()":"c515205d","setValue1(uint256)":"6ca0f321","setValue2(uint256)":"74d393f0","total()":"2ddbd13a","value1()":"3033413b","value2()":"5d33a27f"}}}}}